:100000000C942A000C9441090C946A090C949309ED
:100010000C9447000C9447000C9447000C94B606CF
:100020000C94DF060C9408070C9431070C945A07C3
:100030000C9447000C9447000C9447000C94470024
:100040000C941B0C0C9447000C9447000C94470034
:100050000C94470011241FBECFE5D8E0DEBFCDBF12
:1000600012E0A0E6B0E0E0EFFBE102C005900D92E7
:10007000AE30B107D9F712E0AEE0B2E001C01D9298
:10008000A032B107E1F70E948F0D0C94F60D0C948D
:100090000000EF92FF920F931F937B018C0120E0F1
:1000A00030E040E05FE40E94190388238CF0C8012F
:1000B000B70120E030E040E05FE40E94C1010E940F
:1000C000A7039B01AC01205030404040504806C07F
:1000D000C801B7010E94A7039B01AC01B901CA0185
:1000E0001F910F91FF90EF900895A0E0B0E0EBE733
:1000F000F0E00C94BF0DDC012B01FA019C919230D1
:1001000008F439C1EB018881823008F433C194309E
:1001100069F4843009F02FC111969C91119789815F
:10012000981709F428C1AEEEB0E025C1843009F477
:1001300021C18230A9F4923009F01DC19A01AD01AC
:1001400088E0EA010990AE01E90109929E0181501F
:10015000C1F7E201898111969C918923818308C1AD
:10016000923009F407C112962D903C901397EB0141
:100170008A819B811496AD90BD90CD90DC901797AD
:10018000EC80FD800E811F819101281B390BB90184
:1001900037FF04C066277727621B730B6032710537
:1001A0000CF061C0121613066CF537014801062EDB
:1001B00004C096948794779467940A94D2F721E0C8
:1001C00030E040E050E004C0220F331F441F551FB1
:1001D0006A95D2F721503040404050402E213F21B7
:1001E00040235123211531054105510521F021E01E
:1001F00030E040E050E079018A01E628F72808293C
:1002000019293CC0232BD1F1260E371E350146019A
:10021000062E04C096948794779467940A94D2F734
:1002200021E030E040E050E004C0220F331F441FC3
:10023000551F6A95D2F721503040404050402A2146
:100240003B214C215D21211531054105510521F04E
:1002500021E030E040E050E059016A01A628B728CB
:10026000C828D9280BC0821593052CF01C01AA249C
:10027000BB24650103C0EE24FF24870111969C91E5
:10028000D20111968C91981709F445C0992339F041
:10029000A80197012A193B094C095D0906C0A6016E
:1002A00095012E193F09400B510B57FD08C01182D3
:1002B0003382228224833583468357831DC081E0A5
:1002C00081833382228288279927DC01821B930B4A
:1002D000A40BB50B84839583A683B7830DC0220F2F
:1002E000331F441F551F24833583468357838281E0
:1002F000938101979383828324813581468157813D
:10030000DA01C9010197A109B1098F5F9F4FAF4F72
:10031000BF4328F30BC0918333822282EA0CFB1C7B
:100320000C1D1D1DE482F5820683178383E0808304
:10033000248135814681578157FF1AC0C901AA27F8
:1003400097FDA095BA2F81709070A070B0705695EF
:10035000479537952795822B932BA42BB52B848318
:100360009583A683B7838281938101969383828349
:10037000DF0101C0D201CD01CDB7DEB7E2E10C94BF
:10038000DB0DA0E2B0E0E7ECF1E00C94CB0D69836B
:100390007A838B839C832D833E834F835887E9E048
:1003A000EE2EF12CEC0EFD1ECE010196B7010E943F
:1003B00098058E010F5E1F4FCE010596B8010E9471
:1003C00098058A8991E089278A8BC701B801AE0117
:1003D000475E5F4F0E9475000E94C304A096E6E04E
:1003E0000C94E70DA0E2B0E0E8EFF1E00C94CB0D47
:1003F00069837A838B839C832D833E834F835887C5
:10040000F9E0EF2EF12CEC0EFD1ECE010196B701A6
:100410000E9498058E010F5E1F4FCE010596B80110
:100420000E949805C701B801AE01475E5F4F0E9468
:1004300075000E94C304A096E6E00C94E70DA0E2CC
:10044000B0E0E5E2F2E00C94BF0D69837A838B8320
:100450009C832D833E834F835887CE010196BE0136
:10046000675F7F4F0E949805CE010596BE016F5EC3
:100470007F4F0E9498059985923088F08989823053
:10048000C8F0943019F4823051F404C0843029F457
:10049000923081F48EEE90E0C6C0923049F420E0B4
:1004A0009A858A89981321E02A87CE010996BBC0D4
:1004B000823049F420E09A858A89981321E02A8BBA
:1004C000CE014196B0C02D843E844F8458886D88FB
:1004D0007E888F88988CEE24FF248701AA24BB2471
:1004E000650140E050E060E070E0E0E0F0E0C10174
:1004F00081709070892BE9F0E60CF71C081D191D1E
:100500009A01AB012A0D3B1D4C1D5D1D80E090E062
:10051000A0E0B0E0E614F7040805190520F481E036
:1005200090E0A0E0B0E0BA01A901480F591F6A1F8E
:100530007B1FAA0CBB1CCC1CDD1C97FE08C081E0F5
:1005400090E0A0E0B0E0A82AB92ACA2ADB2A3196B6
:10055000E032F10549F0660C771C881C991C569412
:10056000479437942794C3CFFA85EA892B893C892D
:100570008B859C85280F391F2E5F3F4F17C0CA01FE
:1005800081709070892B61F016950795F794E79428
:1005900080E090E0A0E0B0E8E82AF92A0A2B1B2BC3
:1005A00076956795579547952F5F3F4F77FDE7CF36
:1005B0000CC0440F551F661F771F17FD4160EE0CDE
:1005C000FF1C001F111F21503040403090E05907A0
:1005D00090E0690790E4790760F32B8F3C8FDB0193
:1005E000CA018F779070A070B07080349105A1051A
:1005F000B10561F447FD0AC0E114F10401051105DC
:1006000029F0405C5F4F6F4F7F4F40781A8EFE1786
:1006100011F081E08A8F4D8F5E8F6F8F78A383E01A
:10062000898FCE0149960E94C304A096E2E10C9402
:10063000DB0DA8E1B0E0EFE1F3E00C94CB0D6983B2
:100640007A838B839C832D833E834F83588789E0F5
:10065000E82EF12CEC0EFD1ECE010196B7010E9492
:1006600098058E010F5E1F4FCE010596B8010E94BE
:1006700098058985823040F08989823028F0C70149
:10068000B8010E94100601C08FEF6896E6E00C9456
:10069000E70DA8E0B0E0EFE4F3E00C94C80D9B0197
:1006A000AC0183E08983DA01C9018827B7FD83950E
:1006B0009927AA27BB27B82E2115310541055105D9
:1006C00019F482E089833AC08823A9F0203080E0C1
:1006D000380780E0480780E8580729F460E070E0B8
:1006E00080E09FEC30C0EE24FF248701E21AF30A79
:1006F000040B150B02C079018A018EE1C82ED12CA2
:10070000DC82CB82ED82FE820F831887C801B7019D
:100710000E94740401971816190684F4082E04C068
:10072000EE0CFF1C001F111F0A94D2F7ED82FE820F
:100730000F831887C81AD90ADC82CB82BA82CE010D
:1007400001960E94C3042896E9E00C94E40DACE005
:10075000B0E0EDEAF3E00C94CF0D69837A838B83EC
:100760009C83CE010196BE016B5F7F4F0E9498056E
:100770008D81823061F1823050F1843021F48E819C
:10078000882351F12EC02F81388537FD20C06E811E
:100790002F3131051CF06623F9F023C08EE190E083
:1007A000821B930B29853A854B855C8504C0569541
:1007B0004795379527958A95D2F76623B1F05095DE
:1007C0004095309521953F4F4F4F5F4F0EC020E031
:1007D00030E040E050E009C02FEF3FEF4FEF5FE720
:1007E00004C020E030E040E050E8B901CA012C9696
:1007F000E2E00C94EB0DA8E0B0E0E1E0F4E00C9452
:10080000C70D7B018C01611571058105910519F4F6
:1008100082E0898360C083E089838EE1C82ED12C79
:10082000DC82CB82ED82FE820F831887C801B7017C
:100830000E947404FC013197F7FF3BC02227332745
:100840002E1B3F0B57016801022E04C0D694C7949B
:10085000B794A7940A94D2F740E050E060E070E0CB
:1008600081E090E0A0E0B0E004C0880F991FAA1FCB
:10087000BB1F2A95D2F70197A109B1098E219F21AB
:10088000A023B1230097A105B10521F041E050E07C
:1008900060E070E04A295B296C297D294D835E83E5
:1008A0006F8378878EE190E08E1B9F0B9C838B83F8
:1008B00012C0309781F00E2E04C0EE0CFF1C001FFA
:1008C000111F0A94D2F7ED82FE820F831887CE1A89
:1008D000DF0ADC82CB821A82CE0101960E94C30419
:1008E0002896EAE00C94E30DEF92FF920F931F938A
:1008F0007B018C0180E0E81680E0F80681E00807C3
:1009000080E0180788F48FEFE816F104010511055F
:1009100031F028F088E090E0A0E0B0E017C080E07F
:1009200090E0A0E0B0E012C080E0E81680E0F806B9
:1009300080E0080781E0180728F088E190E0A0E057
:10094000B0E004C080E190E0A0E0B0E020E230E060
:1009500040E050E0281B390B4A0B5B0B04C0169596
:100960000795F794E7948A95D2F7F701EA50FF4F7D
:100970008081281B310941095109C9011F910F913B
:10098000FF90EF900895DF92EF92FF920F931F93E5
:10099000FC01E480F58006811781D180808182305E
:1009A00048F480E090E0A0E1B0E0E82AF92A0A2BC0
:1009B0001B2BA5C0843009F49FC0823021F4EE24A3
:1009C000FF24870105C0E114F1040105110519F4A4
:1009D000E0E0F0E096C0628173819FEF62387907B2
:1009E0000CF05BC022E83FEF261B370B2A313105A4
:1009F0002CF020E030E040E050E02AC0B801A70130
:100A0000022E04C076956795579547950A94D2F7BC
:100A100081E090E0A0E0B0E004C0880F991FAA1F19
:100A2000BB1F2A95D2F70197A109B1098E219F21F9
:100A3000A023B1230097A105B10521F081E090E04A
:100A4000A0E0B0E09A01AB01282B392B4A2B5B2B9D
:100A5000DA01C9018F779070A070B0708034910571
:100A6000A105B10539F427FF09C0205C3F4F4F4F66
:100A70005F4F04C0215C3F4F4F4F5F4FE0E0F0E01D
:100A80002030A0E03A07A0E04A07A0E45A0710F09F
:100A9000E1E0F0E079018A0127C06038710564F572
:100AA000FB01E158FF4FD801C7018F779070A0700C
:100AB000B07080349105A105B10539F4E7FE0DC091
:100AC00080E490E0A0E0B0E004C08FE390E0A0E01C
:100AD000B0E0E80EF91E0A1F1B1F17FF05C0169590
:100AE0000795F794E794319687E016950795F79464
:100AF000E7948A95D1F705C0EE24FF248701EFEF34
:100B0000F0E06E2F679566276795902F9F77D794B3
:100B1000DD24D7948E2F8695492F462B582F5D299B
:100B2000B701CA011F910F91FF90EF90DF900895D8
:100B3000FC01DB01408151812281622F6F7770E0DF
:100B4000221F2227221F9381892F880F822B282F73
:100B500030E0991F9927991F11969C9311972115A1
:100B60003105A9F5411551056105710511F482E0C2
:100B700037C082E89FEF13969C938E9312979A0149
:100B8000AB0167E0220F331F441F551F6A95D1F751
:100B900083E08C930DC0220F331F441F551F129604
:100BA0008D919C911397019713969C938E93129716
:100BB000203080E0380780E0480780E4580758F389
:100BC00014962D933D934D935C93179708952F3F63
:100BD000310579F4411551056105710519F484E079
:100BE0008C93089564FF03C081E08C9312C01C9223
:100BF00010C02F57304013963C932E93129783E0EA
:100C00008C9387E0440F551F661F771F8A95D1F795
:100C1000706414964D935D936D937C93179708952C
:100C20001F93DC01FB019C91923008F447C0808146
:100C3000823008F443C0943051F411961C918430F2
:100C400099F58181682F70E0611B71093FC0843084
:100C500021F0923031F48230B9F18181882389F119
:100C60002DC011961C9111978230F1F081811817D7
:100C7000D9F412962D913C9113978281938182171A
:100C8000930794F028173907BCF014968D919D9125
:100C90000D90BC91A02D2481358146815781281764
:100CA00039074A075B0718F4112341F00AC082177D
:100CB0009307A407B50740F4112319F061E070E031
:100CC00005C06FEF7FEF02C060E070E0CB011F91C5
:100CD00008958FB58E7F8FBD8FB58D7F8FBD8EB5FB
:100CE000877F8EBD8EB58F7E8EBD8FB58F7B8FBD7E
:100CF0008FB58F778FBD8FB58F7E8FBD8FB58F7D71
:100D00008FBD1DBC1CBC89B78B7F89BF089508951A
:100D1000882331F483B7887F83BF83B7826083BF22
:100D20000895882329F483B7887F83BF83B783BF5F
:100D30000895882321F470930F0260930E020895A2
:100D4000882309F462BF0895882319F0813069F47B
:100D500002C04CBF0895662319F0613031F403C01E
:100D60005BBD4ABD089559BD48BD08951F920F92BD
:100D70000FB60F9211242F933F934F935F936F936E
:100D80007F938F939F93AF93BF93EF93FF93E091E4
:100D90001402F0911502309709F00995FF91EF9137
:100DA000BF91AF919F918F917F916F915F914F9183
:100DB0003F912F910F900FBE0F901F9018951F928B
:100DC0000F920FB60F9211242F933F934F935F937F
:100DD0006F937F938F939F93AF93BF93EF93FF9303
:100DE000E0911602F0911702309709F00995FF91F2
:100DF000EF91BF91AF919F918F917F916F915F9193
:100E00004F913F912F910F900FBE0F901F9018950B
:100E10001F920F920FB60F9211242F933F934F936F
:100E20005F936F937F938F939F93AF93BF93EF9352
:100E3000FF93E0911202F0911302309709F00995A7
:100E4000FF91EF91BF91AF919F918F917F916F91A2
:100E50005F914F913F912F910F900FBE0F901F9078
:100E600018951F920F920FB60F9211242F933F9354
:100E70004F935F936F937F938F939F93AF93BF93A2
:100E8000EF93FF93E0911002F0911102309709F077
:100E90000995FF91EF91BF91AF919F918F917F91B4
:100EA0006F915F914F913F912F910F900FBE0F90D7
:100EB0001F9018951F920F920FB60F9211242F9327
:100EC0003F934F935F936F937F938F939F93AF93D2
:100ED000BF93EF93FF93E0910E02F0910F023097D2
:100EE00009F00995FF91EF91BF91AF919F918F917B
:100EF0007F916F915F914F913F912F910F900FBE16
:100F00000F901F901895823061F0833018F4813073
:100F100069F405C0833039F0843041F406C06ABBFF
:100F2000089567BB089564BB089561BB0895683058
:100F300008F07AC04130D1F58230B9F0833020F426
:100F4000813009F071C006C08330D1F0843009F0DF
:100F50006BC021C02AB381E090E002C0880F991FC6
:100F60006A95E2F7282B2ABB089527B381E090E029
:100F700002C0880F991F6A95E2F7282B27BB0895B6
:100F800024B381E090E002C0880F991F6A95E2F7D0
:100F9000282B24BB089521B381E090E002C0880F84
:100FA000991F6A95E2F7282B21BB0895442309F085
:100FB0003BC08230B1F0833018F48130A9F505C010
:100FC0008330D9F0843081F524C02AB381E090E0E9
:100FD00002C0880F991F6A95E2F7809582238ABB29
:100FE000089527B381E090E002C0880F991F6A95A9
:100FF000E2F78095822387BB089524B381E090E0D7
:1010000002C0880F991F6A95E2F78095822384BBFE
:10101000089521B381E090E002C0880F991F6A957E
:10102000E2F78095822381BB0895823061F083309E
:1010300018F4813069F405C0833039F0843041F40C
:1010400006C06BBB089568BB089565BB089562BB7D
:101050000895683008F07AC04130D1F58230B9F097
:10106000833020F4813009F071C006C08330D1F0A4
:10107000843009F06BC021C02BB381E090E002C046
:10108000880F991F6A95E2F7282B2BBB089528B388
:1010900081E090E002C0880F991F6A95E2F7282B43
:1010A00028BB089525B381E090E002C0880F991F06
:1010B0006A95E2F7282B25BB089522B381E090E0E2
:1010C00002C0880F991F6A95E2F7282B22BB08956A
:1010D000442309F03BC08230B1F0833018F48130F2
:1010E000A9F505C08330D9F0843081F524C02BB335
:1010F00081E090E002C0880F991F6A95E2F7809521
:1011000082238BBB089528B381E090E002C0880F52
:10111000991F6A95E2F78095822388BB089525B3CD
:1011200081E090E002C0880F991F6A95E2F78095F0
:10113000822385BB089522B381E090E002C0880F2E
:10114000991F6A95E2F78095822382BB08958230C9
:1011500069F0833018F4813029F406C0833041F0FF
:10116000843041F080E0089589B3089586B30895EE
:1011700083B3089580B308956830D8F4823061F065
:10118000833018F48130A9F405C0833039F08430FD
:1011900081F406C089B305C086B303C083B301C020
:1011A00080B390E002C0959587956A95E2F78170CB
:1011B000089580E008958FB780688FBF08958FB736
:1011C0008F778FBF0895813041F0813018F08230E1
:1011D00059F407C08BB78F7B02C08BB78F778BBF5B
:1011E00008958BB78F7D8BBF0895813009F18130D1
:1011F00020F0823009F044C037C0613039F06130EE
:1012000088F0623031F06330D9F506C085B78D7F44
:1012100005C085B7826008C085B7826085BF85B785
:10122000816020C085B78D7F85BF85B78E7F1AC04E
:10123000613039F0613088F0623031F0633001F5AF
:1012400006C085B7877F05C085B7886008C085B7A9
:10125000886085BF85B7846005C085B7877F85BFF7
:1012600085B78B7F85BF0895623019F0633041F4F4
:1012700004C084B78F7B84BF089584B7806484BF23
:1012800008951F920F920FB60F9211242F933F9340
:101290004F935F936F937F938F939F93AF93BF937E
:1012A000EF93FF93E0911802F0911902309709F043
:1012B0000995FF91EF91BF91AF919F918F917F9190
:1012C0006F915F914F913F912F910F900FBE0F90B3
:1012D0001F9018951F920F920FB60F9211242F9303
:1012E0003F934F935F936F937F938F939F93AF93AE
:1012F000BF93EF93FF93E0911A02F0911B02309796
:1013000009F00995FF91EF91BF91AF919F918F9156
:101310007F916F915F914F913F912F910F900FBEF1
:101320000F901F9018951F920F920FB60F921124D5
:101330002F933F934F935F936F937F938F939F93DD
:10134000AF93BF93EF93FF93E0911C02F0911D02C6
:10135000309709F00995FF91EF91BF91AF919F915F
:101360008F917F916F915F914F913F912F910F904E
:101370000FBE0F901F901895813051F0813018F0FA
:10138000823079F40AC070931902609318020895AC
:1013900070931B0260931A02089570931D0260936C
:1013A0001C0208951F93162F813089F0813018F0A8
:1013B000823029F518C084E062E040E00E9497077F
:1013C00080E0612F0E94F5088BB7806417C084E02D
:1013D00063E040E00E94970781E0612F0E94F508DA
:1013E0008BB780680BC082E062E040E00E94970704
:1013F00082E0612F0E94F5088BB780628BBF1F913E
:101400000895009729F041E050E020E030E012C05C
:10141000672B19F040E050E010C04FEF5FEF0DC0B8
:10142000FA01E89FA001E99F500DF89F500D11248B
:101430002F5F3F4F261737079CF3CA0108950F937C
:101440001F93182F84E060E040E00E94290884E0A8
:1014500061E040E00E94290883E0612F0E941508A6
:1014600084E062E041E00E94290800ED17E0C80135
:101470000197F1F784E062E040E00E942908C8018A
:101480000197F1F71F910F910895882329F4862F72
:1014900080580E941F0A0895813021F4862F8054BD
:1014A0000E941F0A089581E00E941F0A08950F9369
:1014B0001F93182F84E060E041E00E94290884E037
:1014C00061E040E00E94290883E0612F0E94150836
:1014D00084E062E041E00E94290800ED17E0C801C5
:1014E0000197F1F784E062E040E00E942908C8011A
:1014F0000197F1F71F910F9108950F931F93CF93C9
:10150000DF938C016830B0F4660F660F660F862F8C
:10151000805C0E941F0AC0E0D0E0F801EC0FFD1FC4
:1015200080810E94570A2196C830D105B1F780E822
:101530000E941F0ADF91CF911F910F91089588306B
:1015400010F40E94570A08950F931F93CF93DF93CF
:101550009C01009721F480E30E94570A31C0C0E04B
:10156000D0E000E010E0CE0153E0880F991F5A95BB
:10157000E1F7CC0FDD1FC80FD91FC9016AE070E089
:101580000E94AC0DC80FD91FC9016AE070E00E942B
:10159000AC0D9B010F5F1F4F6115710521F7CE0147
:1015A0006AE070E00E94AC0D805D0E94570ACE0197
:1015B0006AE070E00E94AC0DEB010150104079F739
:1015C000DF91CF911F910F910895CF93DF93EC019D
:1015D00097FF07C08DE20E94570A882799278C1B26
:1015E0009D0B0E94A40ADF91CF9108952F923F9204
:1015F0004F925F926F927F928F929F92AF92BF9223
:10160000CF92DF92EF92FF920F931F931B012C0159
:10161000142F0E9449003B014C018AE090E0612FA9
:1016200070E00E94010A7C01C3010E94E50A8EE27B
:101630000E94570A0027F7FC0095102FC801B70138
:101640000E9449037B018C015301CC24DD24C60197
:10165000B5010E94FB039B01AC01C201B1010E94D4
:10166000C1019B01AC01C801B7010E941F020E9489
:101670004900DC01CB010E94E50A1F910F91FF9008
:10168000EF90DF90CF90BF90AF909F908F907F9022
:101690006F905F904F903F902F900895CF93DF937E
:1016A000EC0103C00E94570A219688818823D1F754
:1016B000DF91CF9108950F931F9383E06FEF0E9406
:1016C000830784E060E041E00E94970784E061E0E6
:1016D00041E00E94970784E062E041E00E949707A2
:1016E00080E991E028EC30E0F9013197F1F70197BA
:1016F000D9F788E30E941F0A00ED17E0C80101979F
:10170000F1F78CE00E941F0AC8010197F1F70E94CF
:10171000530A80EA9FE00197F1F786E00E941F0AD2
:10172000C8010197F1F71F910F9108950F931F932F
:10173000CF93DF93A0E0C1E0D0E000E117E2E0E06A
:10174000F0E071E08BB39E010E2E02C0220F331F1A
:101750000A94E2F7922F909598239BBB44E050E0C7
:10176000342F345089B3642F90E0042E02C0959535
:1017700087950A94E2F780FD13C0AE0102C0440FC2
:10178000551F6A95E2F789B390E084239523892B4E
:10179000D1F3A32FA70FC8010197F1F791E006C07D
:1017A0004F5F5F4F48305105D9F690E08BB3282B3F
:1017B0002BBB913031F031967C5F713109F4BFCF92
:1017C000C1CF8A2FDF91CF911F910F91089581E0B2
:1017D0006FE00E94830781E060EF0E941508089582
:1017E0003E9A3F983D98379A339A3598089597B125
:1017F000907E97B997B18770892B87B9369A3699B9
:10180000FECF349A24B135B1C901089597B1907EC5
:1018100097B997B18770892B87B9369A089524B103
:1018200035B1C9010895339A089533980895379AC8
:101830000895379808951F920F920FB60F921124B2
:101840002F933F934F935F936F937F938F939F93C8
:10185000AF93BF93EF93FF93E0911E02F0911F02AD
:10186000309709F00995FF91EF91BF91AF919F914A
:101870008F917F916F915F914F913F912F910F9039
:101880000FBE0F901F90189590931F0280931E0219
:1018900008951F93CF93DF930E94530A10E0C8EC82
:1018A000D0E080E690E00E944E0B82E060E041E0F4
:1018B0000E94290888E893E1FE013197F1F701972A
:1018C000D9F781E790E00E944E0B82E060E040E0B3
:1018D0000E94290888E893E1FE013197F1F701970A
:1018E000D9F71F5F1330E9F6FFCF0E94530A85E84E
:1018F00090E00E944E0B82E061E041E00E942908E6
:1019000080E395E728EC30E0F9013197F1F7019792
:10191000D9F782E061E040E00E9429080E94530A62
:10192000089582E060E041E00E94970782E061E074
:1019300041E00E94970786E092E060E00E947D0A05
:1019400008950F931F93CF93DF9300E0C8ECD0E08E
:101950003BC080E0612F0E94450A8AE990E00E9426
:101960004E0B81E0612F0E94450A85EA90E00E94BB
:101970004E0B88EB9BE0FE013197F1F70197D9F709
:101980000E94530A1F5F153021F780E0612F0E94EB
:10199000450A8AE990E00E944E0B81E0612F0E9487
:1019A000450A85EA90E00E944E0B88EB9BE0FE0121
:1019B0003197F1F70197D9F70E94530A115012306D
:1019C00021F70F5F023011F012E0C3CFDF91CF910A
:1019D0001F910F9108950E94530A80EB90E00E949E
:1019E0004E0B80E06AE00E94450A80E00E949F0A58
:1019F00080E197E228EC30E0F9013197F1F70197A7
:101A0000D9F70E94530A08950E94EB0C0E94750CAE
:101A100089EB90E00E944E0BFFCF8F929F92BF9276
:101A2000CF92DF92EF92FF920F931F93CF93DF93AA
:101A300080E060E00E94450A89EC90E00E944E0B35
:101A4000BB2488EC882E912C81E061E00E94450A3D
:101A5000CC24DD24C8EED3E0EE24FF240E94960BB4
:101A6000082F8AE20E94570A10E0C09FC001C19F60
:101A7000900DD09F900D1124C80ED91ECE016AE0A2
:101A800070E00E94980DEB0182EDC81684E0D80644
:101A900011F40E94040D0894E11CF11C84E0E81686
:101AA000F104E1F682EDC81684E0D806E9F081E0A1
:101AB00061E00E94450A85ED90E00E944E0B88E8A7
:101AC00093E1F4013197F1F70197D9F70B2D0F5FEF
:101AD00081E061E00E94450A81EE90E00E944E0B99
:101AE000033011F0B02EB0CF82E08B1538F082EDCC
:101AF000C81684E0D80611F00E94490CDF91CF91FE
:101B00001F910F91FF90EF90DF90CF90BF909F902B
:101B10008F9008950E94910C0E940D0D08950E94CF
:101B20005B0B0E94E70B0E94A10C0E948A0DFDCF67
:101B3000AA1BBB1B51E107C0AA1FBB1FA617B707F3
:101B400010F0A61BB70B881F991F5A95A9F780950F
:101B50009095BC01CD01089597FB092E07260AD068
:101B600077FD04D0E5DF06D000201AF4709561956A
:101B70007F4F0895F6F7909581959F4F08952F9286
:101B80003F924F925F926F927F928F929F92AF920D
:101B9000BF92CF92DF92EF92FF920F931F93CF935A
:101BA000DF93CDB7DEB7CA1BDB0B0FB6F894DEBFF1
:101BB0000FBECDBF09942A88398848885F846E8417
:101BC0007D848C849B84AA84B984C884DF80EE8061
:101BD000FD800C811B81AA81B981CE0FD11D0FB66A
:101BE000F894DEBF0FBECDBFED010895F894FFCF8E
:101BF0004163636573732069732064656E6965640E
:101C000000202020202020202020202020202020F4
:101C100020202020004F70656E696E672074686513
:101C200020646F6F72202E2E2E00204D2020412028
:101C3000204D202000536D61727420486F6D650047
:101C400057454C434F4D4520004562726168696DB0
:101C500020457268616D6E6900454E5445522050B2
:101C60004153533A0054727920616761696E2021B3
:101C700000202020202020202020202020000000E4
:101C8000000000000000000102020303030304043B
:101C900004040404040405050505050505050505FA
:101CA00005050505050506060606060606060606DA
:101CB00006060606060606060606060606060606C4
:101CC00006060606060607070707070707070707AA
:101CD0000707070707070707070707070707070794
:101CE0000707070707070707070707070707070784
:101CF0000707070707070707070707070707070774
:101D00000707070707070808080808080808080859
:101D10000808080808080808080808080808080843
:101D20000808080808080808080808080808080833
:101D30000808080808080808080808080808080823
:101D40000808080808080808080808080808080813
:101D50000808080808080808080808080808080803
:101D600008080808080808080808080808080808F3
:101D700008080808080808080808080808080808E3
:101D80000808080808082F393837583635342D33F5
:0E1D900032312B3D3064000A1F1F0E0E04007E
:00000001FF
